:020000040800F2
:1000000020AA0020110200080F1B00085D1900083B
:100010000D1B00082D080008F11F0008000000005B
:10002000000000000000000000000000131B00089A
:10003000D108000800000000111B0008151B000873
:100040002B0200082B0200082B0200082B020008DC
:100050002B0200082B0200082B0200082B020008CC
:100060002B0200082B0200082B0200082B020008BC
:100070002B0200082B0200082B0200082B020008AC
:100080002B0200082B0200082B0200082B0200089C
:100090002B0200082B0200082B0200082B0200088C
:1000A0002B0200082B0200082B0200082B0200087C
:1000B0002B0200082B0200082B0200082B0200086C
:1000C0002B0200082B0200082B0200082B0200085C
:1000D0002B0200082B0200082B0200082B0200084C
:1000E0002B0200082B0200082B0200082B0200083C
:1000F0002B0200082B0200082B0200082B0200082C
:100100002B0200082B0200082B0200082B0200081B
:100110002B0200082B0200082B0200082B0200080B
:100120002B0200082B0200082B0200082B020008FB
:100130002B0200082B0200082B0200082B020008EB
:100140002B0200082B0200082B0200082B020008DB
:100150002B0200082B0200082B0200082B020008CB
:100160002B0200082B0200082B0200082B020008BB
:100170002B0200082B0200082B02000800000000E0
:100180002B0200082B0200082B0200082B0200089B
:100190002B0200082B0200082B0200082B0200088B
:1001A0002B0200082B0200082B0200082B0200087B
:1001B0002B0200082B0200082B0200082B0200086B
:1001C0002B0200082B020008000000002B02000890
:1001D0002B0200082B0200082B0200082B0200084B
:1001E0002B0200082B0200082B0200082B0200083B
:1001F0002B0200082B020008DFF810D000F06AFA8A
:100200000048004775460008AFF3008020AA002090
:100210000648804706480047FEE7FEE7FEE7FEE7A0
:10022000FEE7FEE7FEE7FEE7FEE7FEE7B51B000898
:10023000F90100082DE9F05F0546002092469B4633
:1002400088460646814640241BE0284641464746EC
:10025000224600F076F853465A46C01A914110D310
:1002600011461846224600F05DF82D1A67EB01088A
:100270004F4622460120002100F054F817EB0009F8
:100280004E41201EA4F10104DFDC484631462A46D7
:100290004346BDE8F09F40EA01039B0703D009E015
:1002A00008C9121F08C0042AFAD203E011F8013B62
:1002B00000F8013B521EF9D27047D2B201E000F8BB
:1002C000012B491EFBD270470022F6E710B51346FA
:1002D0000A4604461946FFF7F0FF204610BD30B528
:1002E00004460020034600E05B1C934203D2E05C1E
:1002F000CD5C401BF8D030BD30B50B460146002028
:100300002022012409E021FA02F59D4205D303FAD7
:1003100002F5491B04FA02F52844151EA2F1010258
:10032000F1DC30BD202A04DB203A00FA02F1002083
:1003300070479140C2F1200320FA03F31943904023
:100340007047202A04DB203A21FA02F0002170478E
:1003500021FA02F3D040C2F120029140084319462D
:1003600070472DE9FE4F804681EA0300C00F0C461E
:10037000009021F0004123F00045B8EB0200A941B4
:1003800005D24046214690461C460B46024623F0C5
:100390000040104347D0270DC7F30A00C3F30A51AA
:1003A0000290401A019040286BDAC3F3130040F426
:1003B000801B0098924620B10023D2EB030A63EB26
:1003C0000B0B01985946C0F140025046FFF7AAFFB7
:1003D00006460D4650465946019A00F08DF910EB3D
:1003E00008006141002487EA115284EAE7731A4346
:1003F00040D0009A62B3019A012A4FEA075215DCF5
:10040000001B61EB02014FF0004202EA0752CDE906
:100410000042001C41F5801132462B4600F08DF958
:1004200003B0BDE8F08F40462146F9E7001B61EBC1
:100430000201001C41F5801300185B412018A2F551
:10044000001747EB030140EAD570B6196D4111E082
:100450006D084FEA360645EAC0754FEA0752001BA1
:1004600061EB0201001C41F5801149084FEA3000A0
:100470000019514132462B4603B0BDE8F04F00F061
:100480004DB90098012240000023D0EB020263EB3B
:10049000E073009821464FEAE074B8EB000061EB8E
:1004A0000401E9E783F000435BE781F0004158E78E
:1004B0002DE9FE4F81EA030404F0004421F00041DD
:1004C00000944FF0000B23F0004350EA01045ED08B
:1004D00052EA03045BD0C3F30A54C1F30A552C4417
:1004E000A4F2F3340194A0FB0254C1F3130141F4CC
:1004F0008011C3F3130343F4801301FB024400FB98
:10050000034E840A970A44EA815447EA8357A4FBBE
:10051000076802958D0A05FB07854FEA932C04FBBB
:100520000C542705029D4FEA065847EA1637B5EBEB
:1005300008056EEB070C870E920E47EA811742EA18
:100540008312A7FB0201B6EB0B0164EB00042B0D39
:1005500043EA0C335E1844EB1C50DA465146E7FB85
:100560000201C5F313044FEA0B3343EA14534FEA75
:100570000432019C43EA0603A4F10C040294009C9B
:10058000CDE900B400F0D9F803B0BDE8F08F002049
:100590000146F9E72DE9F04D81EA030404F0004B30
:1005A00021F0004514464FF0000A23F0004150EAC4
:1005B000050220D054EA01021DD0C5F30A570246B5
:1005C000C5F31303C1F31300C1F30A5640F48015B9
:1005D00043F48013A7EB0608101BD64608F2FD383B
:1005E00073EB050002D308F1010801E092185B41AA
:1005F000B8F1000F03DA00200146BDE8F08D0020BD
:100600004FF48011064684460EE0171B73EB050776
:1006100005D3121B63EB050306434CEA010C4908A2
:100620004FEA300092185B4150EA0107EDD152EADF
:10063000030012D082EA040083EA0501084305D0D2
:10064000101BAB4106D20122002306E000224FF02E
:10065000004302E06FF0010253101AEB06004CEB6E
:10066000085110EB0A0041EB0B01BDE8F04D00F022
:1006700055B8C1F30A52C1F3130140F2FF3341F4FC
:1006800080119A4202DA00200146704740F233435B
:100690009A42A2F2334202DC5242FFF752BEFFF707
:1006A00041BE000030B5041E71F1000404DB4FF0C0
:1006B0000044404264EB0101141E73F1000405DBA9
:1006C0001C464FF00043524263EB0403994208BFBB
:1006D000904230BD064C074D06E0E06840F0010353
:1006E00094E8070098471034AC42F6D3FFF788FD32
:1006F000846E0C08A46E0C08202A06DBCB17203A67
:1007000041FA02F043EAE07306E041FA02F3D04016
:10071000C2F12002914008431946704710B5141EDB
:1007200073F1000408DA401C41F1000192185B41AA
:100730001A4301D120F0010010BD2DE9F04D924681
:100740009B4611B1B1FA81F202E0B0FA80F2203298
:100750009046FFF7E7FD04460F4640EA0A0041EAEB
:100760000B0153465A46084313D0114653EA010081
:1007700019D0C8F140025046FFF7E3FD05460E468A
:10078000504659464246FFF7CDFD084305D00120AB
:1007900004E020463946BDE8F08D0020054346EAD6
:1007A000E0762C4337430A986305E40AA0EB08007F
:1007B0000022FD0A44EA47540A3002D500200146CF
:1007C000E9E7010510196941DDE9084500196941AA
:1007D000BDE8F04DA2E770B58C1810F8015B15F07C
:1007E000070301D110F8013B2A1106D110F8012BA3
:1007F00003E010F8016B01F8016B5B1EF9D12B07C8
:1008000005D40023521E0DD401F8013BFAE710F87D
:10081000013BCB1A921C03E013F8015B01F8015B6A
:10082000521EF9D5A142D8D3002070BDFEE70000CA
:10083000204AF0B5204E116840F25144631C00205C
:1008400021F00107176001213268C2F30A02A2F504
:100850008065493D04D0A24204D140F0010005E08A
:10086000084603E09A4201D1012200E00022144B25
:100870001043124A09D01348816081680029FCD1D5
:1008800002600068984213D0FEE70F4C4FF00A4018
:100890002468B0EB445F0BD10C480160016800296B
:1008A000FCD10A48083802600068984200D0FEE790
:1008B000F0BD0000002000E0002004E0C2A507F425
:1008C000CDB5E8B5003002400010005C084C02587D
:1008D0007047F0B50126044600201E2301E05B1E90
:1008E00005D303F01F0706FA07F50D42F7D072B1E2
:1008F000082A0AD0102A05D0182A01D1072B06D3BE
:100900000120F0BD082BFBD201E0102BF8D22368A8
:10091000596121688B6823F0180313438B60F0BD85
:1009200010B5040010D0607F20B900202077204649
:1009300000F032F821790220607739B1D4E902124F
:100940002046FFF7C6FF48B1012010BD21681148BD
:1009500048612068816821F0180181606079A0B148
:10096000216820690861012220686369816821F09B
:100970006001194381602068A369816821F08001CA
:10098000194381606277002010BD21684FF0FF306D
:10099000E8E70000B71DC10408B5006806498842B1
:1009A00008D10648016841F480510160006800F4F4
:1009B0008050009008BD00000030024030380240F6
:1009C0002DE9F84F00224FF001094FF0030A4FF0D4
:1009D0000F0E00BF0B6809FA02F42340A34270D146
:1009E0004D68012D05D0022D03D0112D01D0122DFF
:1009F00011D185685700CE680AFA07FC25EA0C0574
:100A0000BE402E43866045680E79A543C6F30016A6
:100A100096402E434660C56856008F680AFA06F471
:100A2000A543B7402F43C7604D68022D01D0122D5A
:100A300012D1D5080F694FEA427C00EB8505AB4621
:100A40002D6A4FEADC6C0EFA0CF807FA0CF725EA6F
:100A500008052F43CBF820700D79076805F00305D2
:100A6000A743B5403D4305604C68E40074D53D4C58
:100A7000256845F480452560246822F00307960721
:100A800004F480440094384C360F2744D7F80848C3
:100A9000DFF8D8C00EFA06F5604524EA050401D156
:100AA00000252EE0324DA84201D1012529E0314D2B
:100AB000A84201D1022524E02F4DA84202D10325EE
:100AC0001FE049E02D4DA84201D1042519E02C4D2D
:100AD000A84201D1052514E02A4DA84201D10625DE
:100AE0000FE0294DA84201D107250AE0274DA84271
:100AF00001D1082505E0264DA84201D1092500E0D5
:100B00000A25B540234E2543C7F808584D68346878
:100B1000ED0324EA030400D51C431E4D34602D1D53
:100B20004E682C68B60324EA030400D51C43194E12
:100B30002C6008364D683468ED0224EA030400D5C1
:100B40001C43144D34600C354E682C68B60224EA00
:100B5000030400D51C432C60521C102AFFF43AAF4A
:100B6000BDE8F88F443802400030014000000240E8
:100B70000004024000080240000C02400010024045
:100B80000014024000180240001C024000200240F5
:100B900000240240003C014001488068704700008A
:100BA000EC08002002488168027811448160704797
:100BB000EC080020032010B500F060F8002000F0E1
:100BC00005F800F023F8002010BD000070B50D4DB1
:100BD00004464FF47A700C4A29781268B0FBF1F0A1
:100BE000B2FBF0F000F0E6FD48B9102C07D200226D
:100BF0002146501E00F022F800206C6070BD0120DC
:100C000070BD0000EC080020F80800200A4808B574
:100C1000016841F080510160006800F08050009050
:100C20000548001D016841F480410160006800F43E
:100C30008040009008BD0000403802400E4BF0B4E8
:100C40001B680D46C3F30223C3F10706042E00D927
:100C50000426191D072901D2002300E0DB1E012410
:100C600004FA06F19C40491E2940641E9940144034
:100C70002143F0BC01F0E1B90CED00E0064900F0C1
:100C8000070210B54FF6FF040868044B204040EA05
:100C900002201843086010BD0CED00E00000FA05CA
:100CA0001848F8B5016841F0805101600068164CA1
:100CB00000F080500090206840F480302060FFF702
:100CC0006BFF4FF47A76054605E000BFFFF764FF3F
:100CD000401BB0420FD86068C003F7D5206840F4CD
:100CE00000302060FFF758FF054606E0FFF754FF8D
:100CF000401BB04201D90320F8BD60688003F5D5E0
:100D00000020F8BD40380240007000402DE9F84F47
:100D100004460078DFF824944FF000063746C007F9
:100D20000ED0D9F8001021F40001C9F80010D9F84C
:100D30000010626B1143C9F80010606B00B9012606
:100D4000FE4D2068843500030ED5E16B286820F441
:100D5000401008432860E06BB0F5801F01D010B14F
:100D600002E0012600E0012720684FF4800BC0025A
:100D70000CD5216C286820F4400008432860206CC2
:100D8000584501D1012601E000B901272068C101C1
:100D900000D50126800666D5E8483830016841F064
:100DA000805101600068DFF898A300F08050009047
:100DB000DAF8001041F48071CAF80010FFF7ECFE79
:100DC000804605E0FFF7E8FEA0EB080064287DD828
:100DD000DAF80000C005F5D5DFF8608308F168088F
:100DE000D8F8000010F440702AD0218E01F4407130
:100DF000814225D0D8F80010D8F8002021F44071A5
:100E000042F48032C8F80020D8F8002022F4803262
:100E1000C8F80020C8F80010D8F80000C0070FD0AC
:100E2000FFF7BAFE824607E0FFF7B6FEA0EB0A0125
:100E300041F288308142CAD8D8F800008007F3D543
:100E4000206BC0F3012103297ED0D9F8001021F4D2
:100E5000F811C9F80010228ED8F80010C2F30B0266
:100E60001143C8F800102078C00607D5286820F084
:100E7000807028602868A16B084328602188AF48EB
:100E80008830490405D5626E016821F44031114370
:100E900001602188090405D5A26E016821F4402172
:100EA000114301602168C90305D5E26E016821F490
:100EB0004011114301602168890305D5226F016843
:100EC00021F4400111430160217800E034E149063A
:100ED00005D5626C016821F003011143016021789E
:100EE000090605D5A26C016821F00C0111430160CF
:100EF0002188C90505D5E26C016821F03001114354
:100F000001602188890505D5226D016821F0C001A5
:100F1000114301602188490505D5626D016821F4FE
:100F20004071114301602188090505D5A26D016852
:100F300021F44061114301602188C90407D5E26DA5
:100F4000016821F4405100E05FE011430160218815
:100F5000890405D5226E016821F4404111430160E6
:100F60002168490205D5A26F016821F08061114313
:100F7000016021684FF0006A890209D5E26F0168BB
:100F800021F0006111430160E16F514500D101275B
:100F900021680A0700D50127490305D5626F01685A
:100FA00021F04071114301602168090206D5D4F88F
:100FB0008020016821F080511143016021684901BE
:100FC00006D5D4F88420016821F000511143016056
:100FD0002068000106D5D4F88810286820F0007039
:100FE000084328602068C00006D5D4F88C10286813
:100FF00020F0806008432860DFF84891012E0ED071
:101000002068B0F1007F0AD08FE04F4AD9F8003055
:10101000104023F4F8120243C9F800201BE7D9F866
:1010200000004E4620F08060C9F80000FFF7B4FDD4
:10103000804605E0FFF7B0FDA0EB080064287BD8F0
:1010400030680001F6D421783C487C30C90712D0C2
:10105000616B81B9237A62680168D0F800C092019F
:10106000C1F3014142EA0142CCF3036142EA01616A
:1010700041EA0371016021680A0303D5E26BB2F50E
:10108000801F04D0C9021AD5216C594517D1636855
:10109000016894F80CC002689B01C1F3014143EA66
:1010A0000141C2F3027241EA0C6141EA027101603E
:1010B0002968626A21F01F01521E114329602168CC
:1010C000C90110D5238A62680168D0F800C0920176
:1010D000C1F3036142EA034242EA0162CCF30271C6
:1010E00042EA01710160216889010CD56168228A98
:1010F000237B94F808C0890141EA024141EA036177
:1011000041EA0C7101603168B04641F080613160A4
:10111000FFF742FD064604E0FFF73EFD801B642812
:101120000AD8D8F800000001F6D5E7B3D9F80000D6
:101130004E4620F0805009E07BE000000838024075
:101140000070004000380240FFFCFF0FC9F80000AB
:10115000FFF722FD074604E0FFF71EFDC01B6428D1
:1011600067D83068C0438000F6D5216835480A0347
:1011700001D5E26B1AB1C9021DD5216CD9B96369D9
:101180000168277E02689B01C1F3014143EA0143E4
:10119000C2F3027143EA076242EA01710160296801
:1011A0006FF0FF0300E04BE0A26A21F4F85103EB7B
:1011B0000222114329602168890212D5E16F51454D
:1011C0000FD1238C6269016807689201C1F3036142
:1011D00042EA034242EA0162C7F3027142EA017144
:1011E00001602178090716D561690268D0F800C04E
:1011F0008B01277FC2F30362CCF3014143EA014133
:1012000041EA026141EA077101602868E16A20F45D
:10121000403008432860306840F080503060FFF76D
:10122000BBFC044608E000BFFFF7B6FC001B6428C7
:1012300002D90320BDE8F88F3068C0438000F3D4A2
:101240000020F7E7883802402DE9F04705000F46F7
:1012500063D0444E306800F00F00B84209D23068C5
:1012600020F00F0038433060306800F00F00B842C3
:1012700053D128683C4C810712D5400703D520681C
:1012800040F4E05020602878000703D5206840F43F
:1012900060402060A968206820F0F00008432060CA
:1012A0002878C0072AD0304968680839012810D04A
:1012B0000968022810D0890700292EDA216821F058
:1012C000030101432160FFF767FC804641F2883942
:1012D0000DE009688903EFE78901EDE7FFF75CFCA2
:1012E000A0EB0801494502D90320BDE8F0876868F2
:1012F000216801F00C01B1EB800FEFD1306800F0F4
:101300000F00B8420BD9306820F00F00384330602E
:10131000306800F00F00B84201D00120E5E72878DE
:10132000400705D5E968206820F4E05008432060B4
:101330002878000706D52869216821F4604141EA30
:10134000C000206000F038F82168084AC1F303119A
:10135000515CC8400649086006480068FFF736FC43
:101360000020C2E7003C024008380240B46D0C087F
:10137000F8080020F00800200449054809680068C2
:10138000044AC1F38221515CC840704708380240CA
:10139000F8080020C46D0C08044905480968006875
:1013A000044AC1F34231515CC840704708380240DA
:1013B000F8080020C46D0C08154910B515480968D7
:1013C00011F00C0213D01449042A0FD0082A0ED1B0
:1013D0000F4C241F2268236802F03F025B0207D5EE
:1013E0002068C0F38810A0FB010106E0084610BD8C
:1013F0002168C1F38811A1FB00010023FEF71AFF49
:101400002168C1F30141491C4900B0FBF1F010BD56
:10141000083802400024F40040787D012DE9F84F9F
:1014200004004FF000076ED02078DFF87CA3AAF10B
:101430000408C007A8F104054CD0DAF800105046A3
:10144000C1F38101012908D00068C0F3810002289E
:101450000AD1D8F80000400206D52868800339D5A3
:1014600060680028DFD035E06068B0F5803F0BD0C1
:1014700010B1B0F5A02F11D0286820F4803028607A
:10148000286820F4802002E0286840F4803028603A
:10149000606890B1FFF780FB06460AE0286840F4D8
:1014A00080202860F0E700BFFFF776FB801B6428F0
:1014B00072D828688003F7D50CE0FFF76DFB06466D
:1014C00005E000BFFFF768FB801B6428F0D82868A0
:1014D0008003F7D42078800742D5DAF80010504610
:1014E00011F00C0F08D00068C0F3810002280BD166
:1014F000D8F80000400207D42868800718D5E068B3
:10150000012800D114E04AE1E0680028286817D0DB
:1015100040F001002860FFF73FFB064605E000BFF2
:10152000FFF73AFB801B0228C2D828688007F7D54E
:101530002069296821F0F80141EAC00028600FE025
:1015400020F001002860FFF727FB064605E000BFFA
:10155000FFF722FB801B02281ED828688007F7D4DB
:101560002078000729D5904861696C3000298146B0
:10157000016812D041F001010160FFF70DFB064642
:1015800005E000BFFFF708FB801B022804D8D9F84C
:1015900000008007F6D510E089E021F0010101602C
:1015A000FFF7FAFA064604E0FFF7F6FA801B022876
:1015B0007DD8D9F800008007F6D4207840076BD595
:1015C000DFF8E49109F13809D9F80000C0000BD424
:1015D000D9F8001041F08051C9F80010D9F8000086
:1015E000012700F08050009070480168C90512D4AE
:1015F0000168834641F480710160FFF7CDFA064629
:1016000005E000BFFFF7C8FA801B64284FD8DBF85D
:101610000000C005F6D5644EA068683601280AD0DF
:1016200008B1052811D0306820F001003060306822
:1016300020F0040002E0306840F001003060A06853
:10164000A0B1FFF7A9FA83460CE0306840F004002F
:101650003060F0E7FFF7A0FAA0EB0B0141F2883011
:10166000814268D830688007F4D50EE0FFF794FA1D
:10167000834607E0FFF790FAA0EB0B0141F28830B8
:10168000814258D830688007F4D42FB1D9F80010BF
:1016900021F08051C9F80010A069E0B3DAF8001019
:1016A000C1F3810102294DD00228286800E042E000
:1016B00020F08070286003D0FFF76EFA04463DE00A
:1016C000FFF76AFA064604E0FFF766FA801B022875
:1016D00031D828688001F7D4D4E90921DFF8D0C0D7
:1016E000D4E9070694F830304F0894F82C103043B2
:1016F0000CEB074444EA8212104340EA016040EADE
:101700000370C8F80000286840F080702860FFF778
:1017100043FA044605E044E0FFF73EFA001B0228C6
:1017200009D828688001F7D53BE000BFFFF734FAFD
:10173000001B022802D90320BDE8F88F2868800129
:10174000F4D42EE00128D8F8000028D0E16900F494
:1017500080028A4223D1216A00F03F028A421ED1D0
:10176000626A47F6C0710140B1EB821F17D1A16ACE
:101770004FF0FF3200F4403302EB5101B3EB014F65
:101780000DD194F82C1000F07062B2EB016F06D10D
:1017900094F8301000F0E040B0EB017F01D0012060
:1017A000CAE70020C8E70000083802400070004087
:1017B0000000FFFF401EB0F1807F10B501D3012073
:1017C00010BD4FF0E02460610F21601700F035FC80
:1017D0000020A0610721216110BD10B5040002D0D6
:1017E000606F10B107E0012010BD002084F8700088
:1017F000204600F025F8242060672068016821F069
:1018000001010160204600F073FA0128ECD0606A03
:1018100010B1204600F0DCF92068416821F49041C5
:1018200041602068816821F02A0181602068016898
:1018300041F0010101602046BDE8104000F02CBAE3
:1018400010B586B0044614216846FEF73DFD1249E6
:10185000206888421ED11148016841F4802101604E
:10186000006800F4802005900C481038016841F0B1
:101870000801016000680221002200F008000590C4
:10188000032307244FF440708DE81F000448694685
:10189000FFF796F806B010BD0048004040380240FF
:1018A000000C02402DE9F8430446406F1F461646DF
:1018B0000D46202850D1CDB1C6B194F87000012852
:1018C0004AD0012084F8700021224FF00008C4F8AB
:1018D0007C806267FFF760F98146A068A4F85060D9
:1018E000A4F85260B0F5805F03D004E00120BDE8A9
:1018F000F883206928B12E465FF0000584F87080D7
:1019000010E00026FAE78021204600F01FFBB8B95E
:10191000C6B116F8010B21688862B4F85200401E67
:10192000A4F85200B4F852004B464FF00002009762
:101930000028E8D14FF04001204600F007FB38B105
:101940000320D4E735F8020B2168C0F30800E3E771
:10195000202060670020CAE70220C8E7FEE70000F9
:101960000A48002130B4084C0C224FF4E1330460E3
:10197000C0E90131C160C0E904128161C161016245
:10198000416230BCFFF729BF00480040A069002039
:10199000014801F03DBB00007C090020ADF58F6DD2
:1019A000304910A84FF48762FEF775FC0AA910A809
:1019B00001F05CFB9FED2C0ADDED0F0A2B4860EE79
:1019C000800AB7EEE01A8DED081BDDED0E0A60EE21
:1019D000800AB7EEE01A8DED061BDDED0D0A60EE14
:1019E000800AB7EEE01A8DED041BDDED0C0A60EE07
:1019F000800AB7EEE01A8DED021BDDED0B0A60EEFA
:101A0000800AB7EEE01A8DED001BDDED0A0A20EE2C
:101A1000800AB7EEC00A53EC102B00F0EBFA0A99DB
:101A20004FF07C50814201DD11A017E00B998142FB
:101A300001DD17A012E00C99814201DD1AA00DE032
:101A40000D99814201DD1EA008E00E99814201DD61
:101A500021A003E00F99814202DD26A000F0CAFA1E
:101A6000FEE700007C690C080000C8421C6E0C08F0
:101A700054686973206D616E20697320676F20441C
:101A80006F776E737461697273210D0A0000000034
:101A900054686973206D616E206973204A6F6767AF
:101AA000696E67210D0A000054686973206D616ECC
:101AB0002069732053697474696E67210D0A0000F0
:101AC00054686973206D616E206973205374616E70
:101AD00064696E67210D0A0054686973206D616E38
:101AE00020697320676F2055707374616972732168
:101AF0000D0A000054686973206D616E20697320BF
:101B000057616C6B696E67210D0A0000FEE7704734
:101B100070477047FFF746B830B5B7B0342124A8F6
:101B2000FEF7D2FB142131A8FEF7CEFB90216846C8
:101B3000FEF7CAFB1D48016841F080510160006852
:101B400000F0805036901A48016841F4404101602D
:101B5000006800250DF1B00C022424940822D8233B
:101B6000CDE92A4500F44040369010218CE81C0055
:101B700001202F94CDE9270124A8FFF74FFCFFF7A0
:101B80008FF8E2024FF4A0510F20CDE9341231AAB0
:101B9000072182E8310031A8FFF756FBE0011395D9
:101BA00000906846FFF7B2F837B030BD40380240C9
:101BB0000070004005484FF000610368034A43F499
:101BC00070030360803A11607047000088ED00E008
:101BD00090F82410C90706D00168836A4A6822F485
:101BE00000321A434A6090F82410890706D501682C
:101BF000C36A4A6822F480321A434A6090F824107B
:101C0000490706D50168036B4A6822F480221A430B
:101C10004A6090F82410090706D50168436B4A68AA
:101C200022F400421A434A6090F82410C90606D5EF
:101C30000168836B8A6822F480521A438A6090F8A4
:101C40002410890606D50168C36B8A6822F4005205
:101C50001A438A6090F82410490611D50168036C74
:101C60004A6822F480121A434A60016CB1F5801F61
:101C700006D10168436C4A6822F4C0021A434A60E4
:101C800090F82410090606D50168826C486820F493
:101C90000020104348607047F8B500260446C66728
:101CA000FEF77AFF054620686FF07E470068000760
:101CB00008D500222B464FF400112046009700F073
:101CC00045F960B92068006840070AD500222B4614
:101CD0004FF480012046009700F038F908B1032046
:101CE000F8BD2020606784F87060A0670020F8BD10
:101CF0002DE9F04104468068DFF820C2884F236850
:101D0000D4E90452E16928431E6800250A43854945
:101D1000104306EA0C0606431E604FF4004220689A
:101D2000E668436823F44053334343602368A6695D
:101D3000206AD3F808C030432CF4306606439E6016
:101D40002068B8420AD1086810F0030052D0012878
:101D50007BD002287AD003286ED186E0724B98425D
:101D60000AD1086810F00C0079D004287BD008282C
:101D700077D00C2860D178E06C4B98420AD1086883
:101D800010F030006BD010286DD0202869D030289A
:101D900052D16AE0664B98420AD1086810F0C00040
:101DA0005DD040285FD080285BD0C02844D15CE063
:101DB000604B98420DD1086810F440704FD0B0F5D8
:101DC000807F50D0B0F5007F4BD0B0F5407F33D14D
:101DD0004BE0594B98420FD1086810F4406009D08D
:101DE000B0F5806F3FD0B0F5006F3AD0B0F5406FDE
:101DF00022D13AE0012120E0504B98420DD10868F1
:101E000010F440502BD0B0F5805F2CD0B0F5005FBF
:101E100027D0B0F5405F0FD127E0494B98420BD156
:101E2000086810F440401AD0B0F5804F1BD09042A3
:101E300017D0B0F5404F18D01021E0694FF6EF767B
:101E400090423AD1092961D202E00CE009E006E0B3
:101E5000DFE801F00D10255C285C5C5C2B000021A4
:101E6000EBE70221E9E70421E7E70821E5E7FFF7CF
:101E700083FA01E0FFF790FA6168400000EB51003F
:101E8000B0FBF1F080B2A0F11001B1423ED84FF6A4
:101E9000F0732168C0F342021840104326E029493C
:101EA000606805E0FFF788FAE6E760684FF4803184
:101EB00001EB5001B1FBF0F0E4E7092926D2DFE89D
:101EC00001F0050817251C2525251F00FFF754FAEA
:101ED00001E0FFF761FA616800EB5100B0FBF1F03F
:101EE00080B2A0F11001B14210D82168C8600EE0A4
:101EF0006068154901EB500105E0FFF75DFAEAE77C
:101F0000606802EB5001B1FBF0F0E9E70125002029
:101F1000206660662846BDE8F0810000F369FFEFA7
:101F2000001001409038024000440040004800404A
:101F3000004C004000500040001401400078004078
:101F4000007C00400048E8010024F4002DE9F0473F
:101F50009A4617460E460446089D4FF000094FF07A
:101F6000200839E0681C37D0FEF716FEA0EB0A0007
:101F7000A84222D80DB32068016849072CD5C06952
:101F8000C043000528D423684FF40061196221681A
:101F90000B6823F4D0730B6021688B6823F0010376
:101FA0008B60C4F87480C4F87880C4F87C8000BF6B
:101FB000032084F87090BDE8F08721680B6823F453
:101FC000D0730B6021688B6823F001038B60C4F829
:101FD0007480C4F87880EBE72068C06936EA0000B6
:101FE00004D00020B842BDD00020E4E70120F9E78A
:101FF000FEE700000FB4054B10B503A9044A029890
:1020000000F082FC10BC5DF814FB0000E544000801
:10201000FC0800204100080218BF04200A0E18BF67
:1020200040F001004FF07F4232EA010108BF40F06A
:102030000200012808BF05207047090700284FEA61
:10204000116104DB00F1E02080F80014704700F01B
:102050000F0000F1E02080F8141D70479FED3C0A4E
:1020600063E000BF92ED003A91ED004AD2ED012A03
:10207000D1ED013A04EE030A92ED022AD1ED021AE3
:10208000D2ED030A91ED031A91ED044A03EEA20A80
:10209000D2ED043A92ED053AD1ED052A01EE820A1D
:1020A00092ED062AD1ED061A01EE200A92ED071AEA
:1020B000D1ED070A04EE230AD2ED083A91ED084A61
:1020C00002EE830AD2ED092A91ED093A01EE820A65
:1020D00092ED0A2AD1ED0A1A00EE810A92ED0B1A4E
:1020E000D1ED0B0A04EE230A91ED0C4AD1ED0D3A25
:1020F00003EE220A92ED0C3AD2ED0D2A01EE820A8D
:1021000092ED0E2AD1ED0F1A00EE810A91ED0E1A12
:10211000D2ED0F0A40314032103B04EE030A03EEC9
:10212000A20A01EE020A01EEA00A102B9AD206E0E2
:10213000F1EC010A5B1EB2EC011A00EE810A002BE1
:10214000F6D1D0ED000A30EE800A80ED000A70472B
:102150000000000030B528B1144C031F0020216896
:102160000A4605E0084630BD9A4203D81046526838
:10217000002AF9D1002800D041680BD00468A3EBF5
:102180000005A54204D11B681C440346046002E01C
:10219000436000E023603AB11C68D51AA54203D120
:1021A00015682C441C6052685A6030BD000900203C
:1021B00010B510EE104A4FF019406849002200EBAC
:1021C00044002DED028B884257D8DFED650A14F0EC
:1021D000004F60EE200A14BF9FED621A9FED621A55
:1021E00071EE200AFDEEE00A10EE900A00EE900A71
:1021F000F8EEE00A9FED5D1A00EEC10A9FED5C1A51
:1022000000EEC10ADFED5B0A9FED5B1A00EE201ABB
:10221000DFED5A0A40EE010A9FED591A594B00F0C2
:10222000030100EE201A21EE000A7B4403EB810338
:10223000D3ED000A544B7B4403EB810393ED001A6A
:10224000524B41EE000A7B4403EB8101801091ED7B
:10225000000A70EE800AEABB00EE100AB8EEC01A5F
:10226000DFED4B1A9FED4B0ABDEC028B01EE210A0C
:10227000BCEEC00A20EE200A10BD4FF0FF40A04384
:102280001BD04FF0CE40B0EB440F82BF9FED420A0F
:10229000BDEC028B10BD4148B0EB440F28BF0122BA
:1022A00093D2022000F0CAF814F0004F15D0BDEC14
:1022B000028BBDE8104000F0A9B814F5000F02BF72
:1022C0009FED370ABDEC028B10BDBDEC028BBDE863
:1022D000104000E007E000F08DB8BDEC028BBDE8D7
:1022E000104000F08BB800EBD07359104FF07E52C5
:1022F00002EBC15100EE101AA0EB630002EBC050DC
:1023000060EE200A00EE100A20EE208A18EE100A75
:1023100088B118EE100AB0F1FF4F15D018EE100A70
:10232000FFF778FE042808BF00F070F8B0EE480A06
:10233000BDEC028B10BD022000F080F8BDEC028BDA
:10234000BDE8104000F062B8022000F077F8BDEC64
:10235000028BBDE8104000F051B800000000501E94
:102360003BAAB840000000BF0000003F0070313EB3
:10237000F4FD053712BB2A3D12BB2A3EFFFFFF3E8C
:10238000FFFF7F3FCE4B0C00D24B0C00A24B0C004A
:102390000000004B00007E4E0000803F0000A08542
:1023A000000000002DE9F04782460F4C10480D4E0A
:1023B0000E4F001B4FF0000820F007054FF00109F9
:1023C00000221146504602F02DF9002802D1306853
:1023D00010B10020BDE8F0873C60C4E90058C6F8A1
:1023E0000090EDE704090020246A00200009002085
:1023F000208A002030EE000A704700009FED020A9C
:1024000020EE000A70470000000000709FED020AF5
:1024100020EE000A704700000000001002E008C82B
:10242000121F08C1002AFAD170477047002001E04E
:1024300001C1121F002AFBD170470000014908604A
:1024400070470000080900202DE9FF5F82B00021DD
:10245000DDE90430020DDDF840B0034318D044F646
:102460001050A2F2FF3242431514119801281FD0D8
:10247000A5EB0B00401C5FEA000A4FF000064E4F30
:10248000DFF83891B046504615D5CAF1000413E084
:10249000119801244AA3012801D16FEA0B01029887
:1024A000119AC0E90031C0E9024206B0BDE8F09FD0
:1024B000CBF10000DFE704460021404A491842EB17
:1024C0000450CDE9001012E0E00707D032463B4649
:1024D00040464946FDF7ECFF8046894632463B467A
:1024E00010461946FDF7E4FF06460F466410002C1F
:1024F000EAD1DDE90401DDE90023BAF1000F06DAD3
:10250000FDF7D6FF42464B46FDF7D2FF05E0FEF74A
:1025100041F842464B46FEF73DF804460E4600227F
:10252000284BFEF7BFF803D84FF0FF30014607E015
:102530000022254B20463146FDF713FFFEF799F8A0
:10254000102409E0002C0ADB0A220023FDF772FEAA
:10255000039B30321A55641E50EA0102F2D1641C0A
:10256000039AC4F111031444119A012A03D00122E1
:1025700008430DD10AE0084304D000204FF0110BAE
:10258000119072E7A3EB0B056D1E0DE05B4504DDBA
:102590004FF0000205F1010504E003DA4FF00002FC
:1025A000A5F10105002AECD002981199C0E9023189
:1025B000C0E9004579E70000000014400000F03F4A
:1025C000300000000000F0430000E03F2DE9FE4F26
:1025D000040092460F4604D0B4F8480020B1E56CE0
:1025E00003E00020BDE8FE8F0025217B0020E08273
:1025F000C943A082880702D030221121E1E0002FD8
:1026000061D0DDB32888C8B3B7F80490002658E03D
:10261000A868006800EB0610019054D070B306EB78
:102620004600029007EBC0000090DBF818300189EB
:10263000C2888E46C068D3F804C051434143614507
:1026400019D8DBF80C10D1F80C80904513D1D1F8D3
:102650000880F0450FD1496881420CD11868614665
:1026600000F026FDDBF80C20DBF81430D168DA68C6
:102670005143884203D218221221A2E023E0DBF862
:102680001800006800F036FD0146029857F8302027
:10269000C801B0EBC21F01D01922EDE70098006914
:1026A00088B10098808880B14845494600D20846E4
:1026B0005A468146DDE9001000F093F806F1010664
:1026C0002DB1288804E01722D6E72122D4E7002084
:1026D000B04206D9686820B150F826B0BBF1000FAF
:1026E00096D1BAF1000F0AD0B4F84800012808D9F1
:1026F000E56C0C3505D0288818B100265DE0012076
:1027000070E718225CE0A868006800EB06183ED06D
:10271000B8F1000F3BD006EB46000190BA690AEB16
:10272000C0018B46B1F808C0C888E646CB6851683E
:102730000CFB00FC0CFB03FC8C45E2D8D7F80CC06A
:10274000CDF800C0DCF80CC08445DAD10098D0F890
:1027500008C0F445D5D1009840689842D1D110689E
:1027600000F0A6FC7A690146F868D268C068504358
:102770008142C6D3B869006800F0BCFC0199C00171
:102780005AF83110B0EBC11F03D0192218E01722FC
:1027900016E0DBF810000028F9D0BBF8040070B197
:1027A0004845494600D20846594681463A46404681
:1027B00000F017F806F101063DB1288806E0212255
:1027C0001321204601F0C4FA0BE70020B04205D9DE
:1027D000686818B150F82670002F94D1A4F81490AE
:1027E0008DE730B5D3685569DC68EB685C4384607D
:1027F0008B886343C3600C694460096919440160B4
:1028000091690B689B0007D4D1E902355B1B234417
:102810008B6091694068C86030BD2DE9F0410026A9
:10282000054621E0AA6888691368026803EB06146C
:10283000920005D58068D4E90112FDF72CFD08E06F
:10284000D0E902236768D21A3A44826089696068D5
:10285000C860D4E90010A26810446060884201D3C7
:10286000E068081A6060761C0DB1288800E000203E
:10287000B04206D96868002803D050F82610002915
:10288000D0D1BDE8F0812DE9F041002605462BE0CE
:10289000AA68816913680A6803EB061492000FD5D1
:1028A0008968D4E90102FDF7F6FCD4E90101084486
:1028B00060602168884201D3E068081A606012E015
:1028C000D4E90021A36819446160914201D3E16811
:1028D000511A61608269D2E90237DB1B19449160A9
:1028E00080696168C160761C0DB1288800E0002015
:1028F000B04206D96868002803D050F826000028A6
:10290000C6D1BDE8F08100002DE9FF4F95B09A4691
:10291000884606460025EEE1252877D10024274683
:10292000F94A0121039400E0044316F8013F203BDB
:1029300001FA03F01042F7D130782A2811D06FF055
:102940002F033078A0F13002092A16D8039A44F0F8
:10295000020402EB820203EB42021044761C039055
:10296000EFE758F8042B0392002A03DA504244F4AC
:102970000054039044F00204761C30782E2816D1BF
:1029800016F8010F44F004042A280DD06FF02F022E
:102990003078A0F13003092B09D807EB870302EB4D
:1029A0004303C718761CF3E758F8047B761C30788D
:1029B0006C280FD006DC4C2817D068280DD06A2868
:1029C00014D104E0742810D07A280FD10DE044F41B
:1029D00000140AE044F4801401E044F440147278D6
:1029E000824202D104F58014761C761C3078662869
:1029F0000BD013DC582877D009DC002875D0452887
:102A0000F6D04628F4D047281AD193E118E063287D
:102A100035D0642879D0652812D18BE1702873D025
:102A200008DC6728F1D069286FD06E280DD06F2898
:102A300006D1ACE073282CD0752874D0782853D0F8
:102A40005246179990476D1C54E1C4F30250022876
:102A500009D003280DD0D8F8001004280DD00D603F
:102A600008F1040846E1D8F80010EA17C1E900525D
:102A7000F6E7D8F800100D80F2E70D70F0E718F8CF
:102A8000041B8DF8001000208DF80100EB4601209A
:102A900003E058F804BB4FF0FF3061074FF000012E
:102AA00002D40DE009F101018946B9420FDA8145EE
:102AB000F8DB1BF809100029F4D108E009F1010145
:102AC00089468142FADB1BF809100029F6D10398E8
:102AD0005346A0EB090721463846179A00F080FAC2
:102AE000284400EB090507E044E008E10DE01BF88D
:102AF000010B524617999047B9F10109F7D2534695
:102B000021463846179AF2E039E00A21C4F302520E
:102B10004FF0000B0091022A06D058F8040BC117A1
:102B2000032A09D00AE023E008F1070020F0070299
:102B3000F2E80201904605E000B2C117042A01D173
:102B400040B2C117002906DA0A460021404261EB73
:102B500002012D2202E0220504D52B228DF804204B
:102B6000012203E0E20701D02022F7E7914657E077
:102B70000A2100E010214FF0000B00910BE0102122
:102B80004FF0000B44F004040827009103E00820F4
:102B90004FF0000B0090C4F30252022A05D058F8FF
:102BA000040B0021032A08D008E008F1070020F0F8
:102BB0000702F2E80201904603E080B2042A00D145
:102BC000C0B24FF0000922072AD53278702A07D008
:102BD000DDF800C08CF0100C5CEA0B0C05D00EE0A8
:102BE00040228DF80420012208E050EA010306D0BB
:102BF00030238DF804308DF8052002229146009B89
:102C000083F0080353EA0B030AD150EA010201D111
:102C1000620705D530228DF804204FF001097F1E90
:102C20003278582A04D039A20C920CAA02920BE0F6
:102C30003BA2F9E75B46009AFDF7FCFA0C9B9B5C14
:102C4000029A521E0292137050EA0102F2D10298C7
:102C500004A9081A00F1200B600702D524F480347F
:102C600000E001275F4502DDA7EB0B0000E000203C
:102C700000EB0B01009003984944401A0390E003D5
:102C800006D453462146179A039800F0A9F9054443
:102C9000002706E001A85246C05D179990476D1CB9
:102CA0007F1C4F45F6DBE0030CD553462146179AAF
:102CB000039800F095F9054404E030205246179936
:102CC00090476D1C0099481E00900029F5DC08E033
:102CD0000298029952460078491C02911799904730
:102CE0006D1CBBF10001ABF1010BF1DC5BE100F00D
:102CF00065F90544761C307800287FF40DAE19B0D4
:102D00002846BDE8F08F0000092801003031323339
:102D10003435363738396162636465660000000017
:102D20003031323334353637383941424344454601
:102D300000000000600700D4062708F1070020F01B
:102D40000700F0E80223804603F0004C5FEA0C0025
:102D500001D097A009E0200501D596A005E0E00785
:102D600001D095A001E0AFF24C001390307823F031
:102D7000004365280CD006DC452809D046281DD024
:102D800047287FD13BE0662818D067287AD136E003
:102D90000021112F01DB112000E0781CCDE900019A
:102DA00004A90CA8FFF750FBDDE90D010C9A4FF0C8
:102DB000000B07F10109109200914EE04FF0004026
:102DC0000097CDE9011004A90CA8FFF73DFBDDE950
:102DD0000D020C9B0F994FF0000B9146109300923F
:102DE00011B9791C00EB0109B7EB090003D4C0F15C
:102DF000FF3B07F10109A9EB0700019042E0012F19
:102E000000DA01270021112F01DD112000E03846F2
:102E1000CDE9000104A90CA8FFF716FBDDE90D01BF
:102E20000C9A00914FF0000BB946109221070FD475
:102E3000009A4A4503DA914601E0A9F10109B9F186
:102E4000010F05DD109AA9F10101515C3029F4D080
:102E5000B84202DA10F1040F03DA0121CDE90110C2
:102E600010E0002803DC8344A9EB000102E0411CD0
:102E7000494500DD8946A0EB0B00401C01904FF056
:102E800000400290200705D40198484502DB4FF02E
:102E9000FF30019000208DF84B0002980DF14B0798
:102EA000B0F1004F25D002200C902B200D900298FD
:102EB00000280CDA404202902D200D9007E00A21F4
:102EC0000298FDF719FA3031029007F8011D0C99AC
:102ED000481E0C900029F2DC02980028EFD1791EE0
:102EE0000D980870307800F0200040F0450007F899
:102EF000020D11A8C01BC01D02901398007800B1EC
:102F0000012000EB0901019801EBE07102980144F6
:102F10000398401A401E0390E00306D4534621460E
:102F2000179A039800F05CF805441398007818B1DC
:102F30005246179990476D1CE00323D5534621460E
:102F4000179A039800F04CF805441BE0BBF1000F02
:102F500007DB0098584504DD1098179910F80B000E
:102F600001E0179930205246904701980BF1010B70
:102F7000401E05F10105019004D12E2052461799FB
:102F800090476D1CB9F10001A9F10109DEDC05E0F3
:102F900017F8010B5246179990476D1C0299481E6D
:102FA00002900029F4DC53462146179A03989EE6C6
:102FB0002D0000002B000000200000002DE9F04152
:102FC000044600251E461746880404D405E0394609
:102FD0002020B0476D1C641EF9D52846BDE8F0815D
:102FE0002DE9F041044600251E469046C80301D550
:102FF000302700E02027880404D505E04146384604
:10300000B0476D1C641EF9D52846BDE8F08100006C
:1030100010B58CB01349302204466846FDF73BF9E1
:1030200000F066FD049000210F480A9400F054FD62
:1030300010F0FF0F03D04FF0FF300CB010BD0A4C62
:103040006946206800F05CFD08B10020F5E72068C3
:1030500000F054FD206800F04FFD00202060801E2D
:10306000EBE700004C690C08B808002070B5B8B157
:10307000B1B10E4C23689BB1221D012602F1180547
:10308000968010611832AE8018462961211D00F02B
:1030900052FD012807D0206800F030FD000A70BD05
:1030A0004FF0FF3070BD002070BD0000B808002058
:1030B00030B5A9B1C0F3C612C0F382352A44C0F3BB
:1030C0004154C0F3434302FB01F0042B00F107001D
:1030D00020F0070020FA04F004D0082B07D104E008
:1030E000002030BD00EB021001E000EB0220C01D0B
:1030F000C00830BDC0F3434102294FF0400130B554
:1031000019D02F4A20F07E440D019442A4EB020313
:1031100047D024DC2B4A9442A4EB020341D017DCB5
:10312000402C42D0403CB4F5802438D0AC423CD155
:103130002449C91F39E0C0F3C051C0F3C612C90504
:1031400000F07F0341EAC211194341F480212CE0D1
:10315000A3F54073F93B16D00F2B26D123E0B3F52E
:10316000006F14D006DCAB420FD0A3F58063073BA1
:103170001BD10EE0A3F500630F3B0DD0124AD342E2
:1031800013D1124911E012490FE012490DE0124922
:103190000BE01049C91D08E00F490F3105E00F4948
:1031A00003E0114601E00A490F3100F0804200F0CF
:1031B00000530A43134300F00060184330BD000081
:1031C00040008400470404000FF801FF4010820112
:1031D00040080400400484004008840040000400CB
:1031E00009A108B50968009148B101789DF800204F
:1031F000914204D104226946FDF771F808B100201C
:1032000008BD012008BD0000038404842DE9FF4FA0
:1032100083B09B4616ACDDE9112094E80803B0FBAF
:10322000F2FADDE91361DDF840E0049FDDF854C0F7
:10323000BE45199D03FB06F003FB0197ACEB0804A8
:10324000A6EB05039FED3C0A03FB02F304FB01F42C
:1032500000FB02F0A1EB05060094CDE90163059B9C
:103260000BEB8701F7EE000A03EB80034FF0000938
:1032700000FE201A03EB820B58E0002753E000BF4A
:103280000EEB89041846002694ED000A20EE010A90
:103290003CE000BF002425F0030C21E0D1ED002A22
:1032A000D0ED003A00EB820091ED012A02EEA30A74
:1032B00090ED003A00EB8200D1ED021AD0ED002A29
:1032C00000EB820002EE030AD1ED030A90ED002A22
:1032D0001031241D00EB820001EEA20A00EE820AEA
:1032E000A445DBDC09E000BFF1EC010AD0ED001AD7
:1032F000641C00EB820000EEA10AAC42F4DB029CED
:10330000761C00EB8400019C01EB84014645C1DB87
:1033100004987F1C00EB8904009809F1010984EDF1
:10332000000A01EB80015745AAD31B1D9B45A4D879
:1033300007B0BDE8F08F0000000000002DE9FF4F4E
:1033400084B09C464FF00008DDF864A0059ADDE9E2
:103350001119DDF870E09142179AB9FBFAF1DDE935
:103360001503DDE91347179EB4FBFAFB01FB02F5D9
:103370000EEB0002A2F1010292FBF0F41A9A1A4439
:10338000A2F1010292FBF3F202FB064200FB09F4F8
:1033900002FB01F2A4EB01040CEB820203FB07FC2D
:1033A0009FED450A9EFBF0F60294F7EE000A40FE00
:1033B000200A00FB16E4A0EB040494FBF0F600FBEB
:1033C000164E1D9C179EA4EB0E040444A4F10104A8
:1033D00094FBF0F4A6EB040600FB14C006FB01F618
:1033E00000FB09F0019603901A9890FBF3F603FB9B
:1033F0001600A3EB000090FBF3F603FB16001A9EE9
:1034000006EB000C1B9EA6EB00000CFB07E6184425
:10341000A0F1010090FBF3F7189806FB09F6A0EB6A
:10342000070005FB00F50698009500EB860E404668
:10343000504581463CD2002633E01198002500EB30
:103440008803704693ED000A20EE200A1CE000235A
:1034500011E000BF00EB810C06E000BFF2EC011AA6
:10346000B0EC011A01EE810A6045F7D3DDF808C01F
:103470005B1C00EB8C00A342ECDB039B6D1C00EBA0
:103480008300019B02EB8302BD42E0DB0598761CC2
:1034900000EB8803009808F1010883ED000A02EBB5
:1034A00080025E45C9D30EEB810E09F10100BFE732
:1034B00008B0BDE8F08F0000000000002DE9FF4FCC
:1034C0002DED020B82B0DDE914E8DDE91709119A50
:1034D000DDF84CB000FB08F0199C5043002703EBCB
:1034E000800A9EE06142002900DC0021ABEB04036E
:1034F000434500D34346661801FB02F0591AABEB73
:103500000105564355430195A8EB010302FB01F564
:1035100006990AEB8000534301EB860100930026D5
:10352000F0EE400A70E000BF002325F00F0C58E0D9
:1035300091ED004AD0ED004AD1ED011A90ED011A4B
:1035400044EE840AD1ED023A90ED022A91ED033A5D
:10355000D0ED032AD0ED044A41EE210A91ED054A4F
:1035600090ED051AD1ED071A42EE230AD0ED063A86
:1035700090ED072A203042EE830A91ED043AD1ED16
:10358000062A203144EE830A41EE040A43EEA20AE1
:10359000B1EC043A42EE210AB0EC041A41EE030AFF
:1035A00090ED013A91ED021A41EEA30AD0ED001A16
:1035B000D1ED013A42EE040A90ED024A91ED032A60
:1035C00042EEA40AD1ED004AD0ED032A10301031AA
:1035D000103341EEA40A43EE230A44EE010A42EE00
:1035E000820A9C45A4DC06E0B0EC011A5B1CF1ECFD
:1035F000011A41EE210AAB42F6DB019B761C01EB7E
:103600008301009B00EB83004E458DDB05987F1CFA
:10361000C0ED000A1299059800EB810005901A98F8
:1036200004447745FFF45EAF08B0BDE8F08F0000BA
:103630002DE9FF4F93B08846DDE92E02DDF8A4B0F6
:10364000DDE92A14DDE92275A1EB0B010E91289921
:103650005043DDE920A6012901D1012805D0B1425E
:1036600001D1012861D00020D3E02C984FF000094F
:1036700016995844CDF840A00B9168430E991191CA
:1036800070431599CDF8348001EB80000E90DDE990
:103690002501484300FB06F842E000BF4FEA8800DE
:1036A000FEF780FE0C9000200AE00B9901EB8002EF
:1036B0000C9992ED000A01EB8001401C81ED000A9B
:1036C0008045F2D80C9BBAF1000F04D01098B0ECF2
:1036D000010A109001E09FED510A279A0DF1900C1C
:1036E0001198CDF818B00992CDE907049CE80700BD
:1036F0000DF10C0C00968CE80700CDE901751398CC
:10370000DDE90D12FFF7DAFE0D98001D0D900B9804
:1037100000EB88000B900C98FEF71CFD09F10109E5
:10372000B945BBD317B0BDE8F08F002031E060424F
:10373000002800DC00202D9A291B914200D311465D
:103740002C9A2318BAF1000F02FB0532159B02FBDD
:1037500006F203EB820E01D0524600E04246CDF85D
:1037600018B00B1A0E990993CDE90710DDE9250170
:103770000395CDE904018DE8C400169B72461398A9
:103780004146FFF743FD279808EB8708044409F1F9
:103790000100249981468842C9D3C3E761420029C8
:1037A00000DC00212D9A281B904200D310462C9A51
:1037B0006318BAF1000F02FB0532159B02FB06F2FB
:1037C00003EB820E01D0524600E04246431A0E98A7
:1037D000CDE90A019446CDF824B00C93DDE9251219
:1037E000289B2F98CDE90501CDE907232E98724635
:1037F000CDF800C04146CDE90350CDE90167169BE5
:103800001398FFF79BFD279808EB8708044409F1FC
:103810000100249981468842C0D383E7000000005C
:103820002DE9F0478246089D25F00100EC0803EBE6
:1038300080069FED460A5AE051F8040BD3ED001ABA
:1038400000F0FF0C0CF00F084FEA1C1793ED014A33
:1038500002EB870CC0F30729DCED000A02EB880CB1
:103860004FEA191700EEA10A9CED001A02EB870C33
:1038700093ED025ADCED000A09F00F0801EE040A8C
:1038800002EB880C93ED033ADCED002AC0F3074706
:10389000D3ED044A00EE850A4FEA171807F00F0728
:1038A00002EB880C02EB87079CED002A02EE830AEC
:1038B000000ED3ED053AD7ED001A4FEA101C00F0C8
:1038C0000F0702EE240A02EB8C0093ED064A90EDFE
:1038D000001A02EB870093ED075A01EEA30AD0ED20
:1038E000000A2033641E01EE040A00EE850A002C53
:1038F000A2D115E011F8010B93ED002A93ED011A06
:10390000040900F00F0002EB840402EB8000D4ED08
:10391000001AD0ED000A083301EE820A00EE810A97
:10392000B342E7D3E80709D0087893ED001A0009FD
:1039300002EB8000D0ED000A00EE810ADAED000A09
:1039400030EE800A8AED000ABDE8F0870000000032
:10395000F0B59FED3D0A059D03EB8504103C05F095
:10396000030527E00E7893ED001A4F7802EB8606E8
:10397000D3ED012AD6ED000A02EB870611F802CF3B
:1039800000EE810A96ED001A02EB8C0791F801C057
:1039900093ED022AD7ED000A02EB8C0601EE220A13
:1039A000D3ED031A891C103300EE820AD6ED000A0B
:1039B00000EEA10AA342D5D915B3012D04D0022DE2
:1039C0000CD0032D38D11CE0097893ED001A02EBDE
:1039D0008101D1ED000A00EE810A2DE00C78D3EDD3
:1039E000001A497802EB8404D3ED010A94ED001A21
:1039F00002EB810101EE210A91ED001A01EE200A8D
:103A00001AE00C7893ED002A4D7802EB8404897853
:103A100093ED011AD4ED001A02EB850402EB81014B
:103A200001EE820A94ED002AD3ED020AD1ED001ACC
:103A300002EE010A01EEA00AD0ED000A30EE800A83
:103A400080ED000AF0BD000000000000F0B5042B7E
:103A5000DDE9055400EB840427D0082B27D12FE0A3
:103A60006E08002312E00F783F0902EB870797EDFD
:103A7000000A80ED000A11F8017B07F00F0702EB46
:103A8000870797ED000A80ED010A0830B34203F181
:103A90000103E8D3EB0708D011F8013B1B0902EB47
:103AA000830393ED000AA0EC010AA042D8D3F0BD35
:103AB00011F8013B02EB830393ED000AA0EC010A2D
:103AC000A042F5D3F0BD10B5016904468847E0680F
:103AD000A04200D1002010BD1CB500230322CDE977
:103AE0000023024A012300F05BF81CBD6C05002096
:103AF00000487047344B000800F088B800F090B8D8
:103B00002DE9F0410D46064600F098F8040010D06B
:103B1000294600F023FD05F118010746204600F074
:103B2000EFFC00EA0704304600F0C7F82040BDE88B
:103B3000F0810020FBE700F0E0B870B5856D044629
:103B4000016DADB1002912D001206165E26DA84779
:103B50000220E26D616DA847606DFFF7B4FF01467A
:103B600060650320E26DA847606D0028F0D170BD4C
:103B70000029FCD06165606DFFF7A5FF0028606536
:103B8000F9D170BD10B518B1044A0168914200D056
:103B900000200446FCF74CFE204610BD0001C0A1E9
:103BA0002DE9F843054691461A064FF00008DDE975
:103BB0000810444642EA014141EA0027FCF738FE7A
:103BC0000F4E65B10F49C9F80010C5F8009000F01C
:103BD000D8F838B1B7F1827F06D974680CE0F06983
:103BE000BDE8F883346807E007A0006800906846E5
:103BF000FFF7F6FA10B9B468C5F800802046EFE781
:103C0000CC6D0C080001C0A10384048410B50446E7
:103C1000FFF7B8FF08B1002010BD204610BD00001E
:103C200010B5FFF7AFFF20B1BDE81040103000F035
:103C3000A2B80148806910BDCC6D0C0870B50C4667
:103C4000FFF7A0FF050004D02CB1A16A206929B1BB
:103C50000CE0002070BD1122102111E0218CE28BBC
:103C6000636A5143594301D0132207E058B92089B0
:103C7000E188E2684843504305D0122228461021CB
:103C800000F066F8E5E71822214605F11800FCF778
:103C900002FB182204F1180105F13000FCF7FBFAD1
:103CA0000320E860286D30B1C1688560814202D090
:103CB00009B10846F8E7284670BD70B5FFF762FF06
:103CC000041E08D0207B800706D410222046112134
:103CD00000F03EF8002070BDA06D60B1256D55B1BB
:103CE000D4E91632002029469847E868A84202D055
:103CF00008B10546F4E7012070BD70B515460E46C3
:103D0000FFF740FF04462A463146FEF75FFC0028D5
:103D10001DD0B4F8480008B1E66C00E00026012888
:103D200002D9E56C0C350DE000250BE03046FEF7BE
:103D300074FD2046FFF701FF2846FEF7A4FDE08A48
:103D4000401CE082E08AA18A8842EFD380B270BD35
:103D5000002802D0103000F02CB8704701680246ED
:103D60000120090A04E05368491E53F821305843E2
:103D70000029F8D1704701680022027002600846ED
:103D800070470120704720B18069D0E90001FFF73A
:103D90008FB90120704710B180698068704709B100
:103DA0008868704700207047002801D0406980680B
:103DB0007047037813F0FF0F01D0002070470170A7
:103DC000016862F31F210160012070472DE9F04F67
:103DD00004464069BDB0018809B1426800E0002294
:103DE00052682AB109B1426800E0002252681268A4
:103DF0000129914602D942680C3200E00022526843
:103E00003AB1012902D942680C3200E0002252681E
:103E100012680229099202D94268183200E0002291
:103E2000526842B1022902D94268183200E00022E9
:103E30005268156800E0002502290BD9426812F18A
:103E4000180F07D032F8183F012B03D9526812B16E
:103E5000526800E000220229934602D942681832D3
:103E600000E00022526842B1022902D940681830AD
:103E700000E000204068866800E000260999A06BF9
:103E8000BBF1000FA28C238DD1F80CE092B2078811
:103E9000B0F804C00189DEF804A01A9289B2B0F823
:103EA0000C8098B2A28D2690B8B2238E92B2089060
:103EB0001FFA8CF0D9F818703690D9F80C900C9144
:103EC0001FFA88F1D5F818C00B91E9682992226D84
:103ED000D9F804001E9098B22590B86819904868E7
:103EE0001C9088681B9010680A9050683A90DCF823
:103EF00008000790DEF80C002C90DEF808002A90ED
:103F0000D9F80C002390D9F808002090A0692B90D4
:103F1000E06B3890606C3790A06C179003D0DBF8A2
:103F20001800806800E000202F90E1693046FFF71C
:103F300032FF074624903046FFF736FF3590304673
:103F4000FFF721FF3B90206A00B9BF48A969299E6D
:103F50008846259A761E0968521E1F90606D34901F
:103F6000C1F3C6131B9D206CAC4614906D1E00203F
:103F700005FB02C2239D2192AD1A089A15440C9AA2
:103F80001544269AB5FBF2F21C9DAC466D1E05FB4E
:103F900006C5C1F341562295C1F3434C209902F165
:103FA000010B369A491B0A440B99F3400A441A99AB
:103FB000BCF1040FB2FBF1F102D0BCF1080F24D127
:103FC000D8F80C200AB361690D88032D02D94E6818
:103FD000243600E0002676685EB1032D02D94868D9
:103FE000243000E000204068406810B181698D688D
:103FF00000E0002581691E984968CDE90001D8F8E4
:1040000008102846FFF722FD05B9079D099A0A986E
:10401000616900B2926981461895CDE92720002296
:10402000CDE92D220888032802D94A68243200E00D
:104030000022526842B1032802D94868243000E0C7
:1040400000204068056800E0002508984042AA6901
:10405000E96816909468D1F80880E6E0BBF1000F9B
:104060005BDD1698369940420028C1F1000E00DC55
:104070000020169A2399891A219A914200D3114659
:10408000259ADDF858C016B2299ACDF830C013B27F
:10409000229A0F96CDE90D2309AB2B9A089283E85B
:1040A00003401AAB93E80700CDE90610CDE904827E
:1040B000209821461E9A2F9BCDE902A0CDE900321F
:1040C0000020DDE91832FFF7B3FA00261CE0A869EA
:1040D0003B4652468460A869DDF87CC00146E04753
:1040E00035983B9907442498381A884200DB249F6E
:1040F00004EB8A04A8694168C26802EB8100A0420F
:1041000001D8A4EB8104761C4645E0D3A86909F1E7
:1041100001010FFA81F9C1688160ABF101005FEA2A
:10412000000B3DD50AFB08F0AA69234600FB09F005
:10413000D168A4EB8000814202D9526800EB820072
:10414000814210D214990AB2914505D10BE000BF0B
:10415000B0EC010AA4EC010AA969CA68496802EB3B
:1041600081018142F4D8179AA969149802FB08F2D8
:10417000A0EB09062E98179C02FB0AF20644C868B9
:1041800049684C440FFA84F936B22E9603EB820448
:1041900000EB810002E000BFA4EB8104A042FBD948
:1041A000149881453DD32D9805AE17990123401CE5
:1041B0002D90A9EB0100279A0FFA80F92A9881B275
:1041C0001798089280B286E80B00379802AE2899BB
:1041D00082B23A98149B89B280B29BB2019386E86E
:1041E000070038981FFA8AF32E9980B2009014982D
:1041F000349E411AA8698AB21FFA88F1B0472A98FA
:104200000AFB00F127988368179803EB810102B23B
:104210002898801A279A0028916000DC002000B2BC
:1042200028902699169808441690DDE92C018142C1
:10423000FFF414AFA869C168816027982799C06806
:1042400088603DB0BDE8F08FFD4400082DE9F04FD7
:104250002DED028B91B04069018809B1426800E000
:10426000002252682AB109B1426800E00022526877
:104270001268012902D943680C3300E000235B680F
:104280003BB1012902D943680C3300E000235B688D
:104290001B68022902D94468183400E000246468CD
:1042A0003CB1022902D94468183400E00024646853
:1042B00024680229A0460BD9406810F1180F07D0D6
:1042C00030F8181F012903D9406810B1406800E098
:1042D0000020D468D9680A90606805904868079003
:1042E000D1E9020100FB01FBD8F81810002006906C
:1042F0000868C0F3C614C0F34155C0F34340EC4016
:1043000004280F9401D0082801D1C86806909B6941
:10431000D8F81410926907989C68D1F804A004EBAF
:10432000800790689FED2C8A039000204CE000BF2E
:10433000D8F818100A988E6810B18069856800E076
:1043400000250698C0B91DE015B1B5EC010A01E0E1
:10435000B0EE480A0F9831468DED0B0A039B0428F6
:104360000598069A00900BA809D0FFF7F1FA9DED89
:104370000B0A5644A4EC010ABC42E5D31AE0FFF74D
:104380004FFAF4E703980B9012E015B1B5EC010A6F
:1043900001E0B0EE480A8DED000A059B31460B9A0C
:1043A0006846FDF75BFE9DED000A5644A4EC010A49
:1043B000BC42EAD30599039800EB8100039007986B
:1043C00007EB800709F1010058458146B0D311B0D1
:1043D000BDEC028BBDE8F08F0000000070B5054613
:1043E0004069018809B1426800E00022526832B198
:1043F00009B1426800E000225268146800E000241D
:10440000012902D942680C3200E00022526842B110
:10441000012902D940680C3000E00020406806689D
:1044200000E00026A86978B14068012804F108007E
:1044300016D0FFF793FC0246A869A1698368B069AA
:10444000BDE8704000F09EB904F10800FFF786FC5B
:10445000A1690246B0690023BDE8704000F078B958
:10446000FFF77CFC0246A869A1698368B069BDE8D2
:10447000704000F0E7B92DE9FC414069018809B1BD
:10448000426800E00022526832B109B1426800E09F
:1044900000225268146800E00024012902D9426811
:1044A0000C3200E00022526842B1012902D9406872
:1044B0000C3000E000204068056800E00025E1685D
:1044C000E8684E68476804F10800FFF747FCCDE94B
:1044D0000067A1690246A869334600F0D5F9BDE836
:1044E000FC81000013B5044801224FF6FF736946B2
:1044F000FDF7D8F900981CBDA069002070470000A6
:1045000070B5154A0023086902F19001C01C20F023
:104510000300906001F11004D0608B6001F1200570
:10452000CB6000F50062A26001F13006E26004F1A8
:104530003002A86000F50071E8604034B160403599
:10454000F16040369060D060A160E160A860E860F2
:104550000120B360F36070BD5C040020F0B52D4E07
:104560002D48096906F110022C4F02F11003D6F80C
:1045700000E00844DFF8A8C002F120044EF0804EAD
:10458000C6F800E0B060BE46F0606746D2F800C0F2
:1045900001EB0E06966001F541204CF0804CC2F80C
:1045A00000C0D660CE191F6802F13005986001F591
:1045B000312247F080471F60D8603033276801F50B
:1045C0002060A26001F5606E47F080472760E260DE
:1045D00003F110022C6801F5006CAE60EE6044F04F
:1045E00080442C6002F110041D6845F080451D6078
:1045F000C3E902E01068C2F808C0C2F80CC040F07D
:10460000804010602068A16040F08040E160206040
:104610000120F0BD6C040020001E0C0000120C00F4
:10462000000E0B002DE9F0410B3020F00706104D75
:1046300019E02068B04215D3B0420AD9871B201D6B
:10464000D4F80480FBF727FEA019C0E900782860A1
:1046500004E060682860201DFBF71DFE201D266019
:10466000BDE8F081251D2C68002CE2D10020F7E781
:104670000009002008B5BFF34F8FBFF36F8F2B48A1
:1046800000240460BFF34F8FBFF36F8F2849086881
:1046900040F400300860BFF34F8FBFF36F8F2448A2
:1046A00070300460BFF34F8F001F43F6FF7C00683B
:1046B0001E4D1035C0F34E32C0F3C9030CEA42164A
:1046C000184600BF46EA80772F60401EFAD2521E7D
:1046D000F4D2BFF34F8F086840F480300860BFF316
:1046E0004F8FBFF36F8FFCF765FA12A0FDF782FCC6
:1046F000FDF712FA1348016841F0080101600068F3
:104700000121114A00F00800009010480260047175
:104710004471446184610162FCF702F9FDF738F9E4
:10472000FDF71EF9FDF73AF9FCE7000050EF00E055
:1047300014ED00E068656C6C6F20776F726C640D2F
:104740000A00000030380240003002407C6900203E
:1047500030B58D686FF00303846803EB8202A818FC
:104760009FED070A224407E0D0ED000A001FC0FEBB
:10477000200AC2ED000A121F8B688342F4D930BDB3
:104780000000000030B5D3ED021A8D686FF003040D
:1047900093ED000A93ED011AF5EEC01A04EB8204C2
:1047A00080682A19F1EE10FA204444D2B5EEC01AFE
:1047B000F1EE10FA0FD112E0D2ED000AF4EEC00AC9
:1047C000F1EE10FA03D270EEC00A60EE810AC0ED7D
:1047D000000A001F121F8B689342EDD930BD9FED78
:1047E000181A0CE0D2ED000AF4EEC00AF1EE10FA4D
:1047F00001D2F0EE410AC0ED000A001F121F8B68C3
:104800009342EFD930BD00BFD2ED000AF4EEE10AC9
:10481000F1EE10FA09D2F4EEC00AF1EE10FA06D267
:1048200070EEC00A60EE810A01E0F0EE610AC0EDB0
:10483000000A001F121F8B689342E5D930BD0000AB
:104840000000000070B58E686FF00304856804EB0B
:104850008202B0189FED0B1AD3ED000A2A440CE037
:1048600090ED000AB4EEE00AF1EE10FA01D2B0EEDB
:10487000410A001F82ED000A121F8B688342EFD9A4
:1048800070BD0000000000002DE9F0470C4689686B
:1048900006468068DDE9089801EB82019A4600EB44
:1048A0008202A1EB8905A2EB88070BE0A56000233B
:1048B000524621463046B76000F00CF8A5EB89055A
:1048C000A7EB8807E068A842F0D9A060F068B06064
:1048D000BDE8F0872DE9F04115462DED028B8E687D
:1048E00087680120DFED1C8A96ED008A07E000BF93
:1048F00006EB8001401C91ED000A88FE008AA84268
:10490000F6D300240FE000BF06EB840090ED000A10
:1049100030EE480AFDF74CFC70EE288A07EB840065
:10492000641C80ED000AAC42EED3F7EE000A0020D2
:1049300080EEA80A09E000BF07EB8001401CD1ED22
:10494000000A60EE800AC1ED000AA842F4D3BDEC73
:10495000028BBDE8F0810000000000002DE9FF4F50
:1049600084B0DDE9175BDDE9159E149AABF1010116
:10497000199E01FB0EF1B6688A1A12990A4406992B
:10498000541A691EDDE9137201FB09F1A4F1010457
:10499000009624B23A43DFED580AD0F80880139805
:1049A000A1EB0001119801440598A1EB0000A0F1D2
:1049B000010000B24AD1002848DA002C46DA002172
:1049C0003FE0129801FB0E000FFA80FA002034E05D
:1049D000119A002400FB092217B22AE001FB0EF60F
:1049E00000FB09F236B212B20192B0EE600A13E097
:1049F000019A0DE0DDF814C006FB0C2C521C12B21B
:104A000003FB0C4C08EB8C0C9CED001A80FE010A99
:104A1000BA42EFDB761C36B25645E9DB01FB0502F4
:104A200003FB0246009A641C24B202EB860282ED6C
:104A3000000A9C42D2DB401C00B2A842C8DB491CE1
:104A400009B25945BDDB08B0BDE8F08F002450E045
:104A500004FB0EF01499401A0390129900220844A6
:104A60000FFA80FA41E000BF02FB09F01399401AE7
:104A7000029011990026084407B232E00398B0EE84
:104A8000600A01B2029800B201901DE0019817E09F
:104A9000002913DB002811DBDDF818C061450DDAB1
:104AA000DDF814C0604509DA01FB0C0C03FB0C6C4B
:104AB00008EB8C0C9CED001A80FE010A401C00B231
:104AC000B842E5DB491C09B25145DFDB04FB052098
:104AD00003FB00610098761C36B200EB810080ED8C
:104AE000000A9E42CADB521C12B2AA42BCDB641C02
:104AF00024B25C45ACDBA6E7000000CF0400000058
:104B000058020020040000009C0200200400000065
:104B1000DC0200200400000020030020040000004C
:104B20006003002004000000A40300200400000033
:104B3000E4030020CFAE9D3D1B0CD1BD639936BD73
:104B4000DB6746BE3BE70D3EB98DA53D9D7612BEA7
:104B50003745C3BDE3FC28BE1A5876BD6832B23D66
:104B600099CD803DE4B8E33D80A575BCD87609BEFB
:104B7000E6E651BDF02CDFBD3C4DDE3DD2D0B33D6D
:104B800006E0E5BDF707BF3ADBDEF5BA8FD2A1BA82
:104B900066EF9E3A3135A5BA3BD9FD3A7E812EBAF1
:104BA000A8138CBB9C4D203BA3FCB6BD86FEE03A0F
:104BB000849F03BEF84D633D7505EBBCCFBC96BD2D
:104BC00038C332BE6420A93D8E8887BDB8C5B3BD49
:104BD000C81F183D9A7D04BEBA165F3B30ECEC3D11
:104BE00012F19FBD33A0F53C3AE8003ECDC68E3BA6
:104BF00021B620BECCC47E3CF41B973C079DA83C4C
:104C00009D482B3D997FA8BD9D11C7BD8E0D113DBF
:104C1000B4A8D63CF557DCBC1CE5953D676139BEB0
:104C2000FC498BBD673F583B587ADC3979B25FBB92
:104C3000142B92BAC5F60F3A4B2CB6BA4BF140BBC7
:104C40009E405838CB4AE1BD460EF0BDB77D843D4D
:104C5000ECF5E13D44D9393BD9A058B93363643907
:104C6000CC86283ACD26303D760321BE090991BD78
:104C7000FC81873DE5010E3C4D5490BD74EBB53D84
:104C8000C816ECBC50E06539354D3ABAE7964CBAD7
:104C9000FD1F983A2E1FAC3D74CDAB3DBC82BCBD10
:104CA0001F9CB6BD01AB69BD5ED557BDE375DABDCE
:104CB00001B577BE65F1BEBAD2A88FBB512305BB43
:104CC000447A2FBAF4B44ABCCA80E13CF919873C53
:104CD00096AD343D0F7539BC8C9D073EC8DAE2BBFA
:104CE0001D7516BEDB83B0BADF7AA2BB13BB823A56
:104CF0008894A23988091D3D9826DABC1134AF3B4F
:104D0000DD130E3D1C4922BE05320EBE0A53AD3DD9
:104D10004F44633DC89AEABDC064C6BD7685D6BD22
:104D2000BE4C51BEF326A3BD854ABD3DA29DBE3DEE
:104D3000011FD4BDBFD0143CE79C243DD67943BDB0
:104D4000D54935BDC4635D3D9FA487BDA6A983BD7C
:104D5000EF48E7BD12D1F3BD8C0FBFBCCDB99D3D6F
:104D60009F14123DBF5A1BBE713535BE3F93C33DE4
:104D7000ACA67A3DF23DEE3DE88795BD33C7F8BD60
:104D8000F8B29A3DEE1EC9BB48E03BBB1930993BD7
:104D9000C8D754BB398462BC657EECBD98BD93BC5A
:104DA000B8FEB03DDF4EA4BDA170A53D3311BD3DA1
:104DB0009D6A91BD14810ABEA8F8EF3C3DA50D3E49
:104DC0000D9AFABDFB0E58BDEB1D373B6D82083DB9
:104DD0003D0A6BBD740E003EDEC87BBDEC9B14BE6D
:104DE0007C83B2BCE6F8BABD296B35BCFBE4A73DB9
:104DF000169E89BD018111BE9C05AE3C17CC0B3EB1
:104E000073AAB8BD2EB339BDCAB6FFBD2DE6A9BC85
:104E1000C54DC53D8ABE373CF1658EBD6AF58E3DF8
:104E2000EC547CBD78A0953DB284BDBD2ECD4ABE6C
:104E300019EE673C46393EBCA3619DBBAC2EFC3BE2
:104E400028FFAB3AAA38B0BC9CAAFB3DD704033D6F
:104E500044620EBE61ACA8BB945392BB04AFD63B78
:104E60005B4D5639E609C1BDCAF4CC3D43CF9F3DE9
:104E7000AA91F3BD023E30BE99C892BC0F42123EC9
:104E80001537E2BD9C48143BABEC96BB9ACFB0BB48
:104E90006EE1733A0B3001BE2BC0DEBDC5C9A1BDAA
:104EA0002EA218BE1AD406BDA39F94BDE959D4BD45
:104EB00026F782BD0815D3B99B2CBD3AFFAFEABADD
:104EC00007635BBCBB012E3CD181B1BD767EC63D84
:104ED000A68E6BBD6256133D49CDD1BDEB60BB3D87
:104EE0008847E0BD8D4F813C4D8ECE3C2DD1CDBD50
:104EF0006B033DBEBF9DACBA14788A3B2DA9DD3A49
:104F0000E385BBBB440A703DC984F03D26D711BD83
:104F100055E0FBBDD97951397B4A3A3A305570BAE0
:104F2000E510D5BAEC3A41BE1F741CBDEF71163EB8
:104F3000EDDC12BE4D411CBDDDD740BD8DA08ABD4C
:104F4000C023AE3CDC4A3F3DF46FC9BCE92E2ABD0C
:104F500076357DBD0835D93D759E9F3CD86432BEFF
:104F6000229ED7BCD04D53BD328B813DAA8D6C3D66
:104F700015F110BEAFE1AA3D7DB6DC3CE58DC0BDAC
:104F8000188BCBBDEAB532BEB1F9CABCECDC0F3E22
:104F90001B7BF4BDEDD5363D1117DD3D50E6483B9A
:104FA000FEED24BE3F626DBA1F883CBB144D503AE3
:104FB0002F3DB2399B7BBD3DA88C25BC66C923BE65
:104FC0005FE6F53B3F2D023E78B935BDBD2825BED5
:104FD0007BF22DBD2360CF3D7415D4BDC7D7D4BDA2
:104FE000AADBD4BD08C3073B929AD6B96BE499BB40
:104FF0006D09C0BB488D013E5363AD3B4D8D13BE63
:10500000F676B8BC85B0053E339AB1BDD190F6BDF9
:10501000244FBF3D6C3D30BC6AC305BE6B0D963D51
:105020005A24A7BD194759BD0BC6353D25EF3E3D56
:10503000822A24BED9FDDABD3DBF01BCCB89973D94
:105040001237753D6E9C06BE0C161ABE7448DD3CC8
:10505000FA880D3E28CD10BEDCB601BD7CA5B73D5B
:105060000E3F223D2B0B37BE6A541F3CA442213E0B
:10507000C090D7BDBA99693D1CF7B7BD02895DBD27
:10508000EA1804BE0F44ADBD63B5ED3DC7B14F3D59
:10509000234B0ABE836ABFBD37CA14398C5DF73D06
:1050A00042D58A3C729C3D3DC09149BED36DA0BDA6
:1050B000644A8B3DF45BF73CB39388BD14BC3A3D26
:1050C0004FD5F5BD5D340E3CF72408BC6C29593D25
:1050D000B9E6A03CF7BE0B3EEE48053E09FB1DBEFF
:1050E0003EEE0BBE0A76EC3DD3D0E5BD21E5D1BD49
:1050F0003A86003E1A1DFE3DE506453BC9A325BE86
:10510000DC4EC9BC33EE213BD6E8B8B91C1C57BBFA
:105110000D5DDCB88C29373B9D3FB0BAB0C263BB94
:10512000E79E983AD94BBDBD3FAFF4BC9621D93D1F
:10513000D588803D9E4C1C3EA2F349BDB07627BE6B
:10514000BE18E8BC2B6B0E3E4D4029BED82820BEB1
:10515000673100BED977C2BD59FF18BEF5F3D6BD81
:105160001692D43C0D92363D43EB05BD3B13313DC9
:10517000AA77023DD02823BD450CA8BDC07E133DB3
:10518000159D563DECACCFBDDDF0903DCF44F83DD4
:10519000C03229BDFB3D6C3BA5A33C3CDBCE2EBD04
:1051A000B0E072BBF3479EBDC7FB1FBE614381BD2C
:1051B000F32DAFBD51BEEBBBA1F8683BE79EF63BBC
:1051C000E2A2A8BBEB7CF8BD828B483DBC5ED2BDA1
:1051D000A16D433DE1F30D3B44978ABD3E4947BD78
:1051E00091704F3DD1ED8DBD6E1413BE455B0FBC6C
:1051F000B93C013E2503C03D5D052D3DBD3EFFBDD3
:10520000807A7CBDE6BE63BDBEE4BFBD3C58A4BC95
:105210007A1DA03DC8A2E7BD6995F3BD17B7193D3A
:1052200090BAED3D5C6CB6BD3ECACFBD0452603C49
:105230002568AC3D4C8C8C3D220A273D3A13B0BD0D
:105240006FBFCBBD1FAF9F3C688004BA135DC1BC6C
:10525000A333AABB4816413DB05A17BE4C1F19BD17
:10526000BD9E0B3E5A23653C810EA3BD0D46753D88
:105270006B862BBD5487033DFBB01EBEF5ECB9BD5C
:1052800088D3D63D4A67F6BD49589FBD8AB111BE45
:105290005FC14BBEA2A160BDB54512BE81DAC3BCE1
:1052A0001C38DE3D8233ABBD400CFB3D6F338D3D82
:1052B0009E0AF4BDCE9B2EBD9A4A2A3DC04816BE1A
:1052C00011D30DBDA86B133E42A1D8BD87D511BE29
:1052D000F1C0FE3D5C9E6DBC895893BBE2DD98BC7D
:1052E0000DBAF4BCEF4241BEAA62973C58EB213E96
:1052F00031BC19BE8C1ECFB88638B2BA667E973ADA
:105300001CAF8EBB636791BC1B461CBDB9B08DBD85
:105310009B34013AEFD898BDB3FB0FBC925062BDED
:10532000CACAEABBFD0488BD6E8121BCB673BB3D11
:105330000140E33CD3B59F3B1B9B8ABEC5670EBFB4
:105340005ACFE9BEF07EC1BE125F9ABDCD5322BED8
:10535000EB9781BCA54994BD3F8B02BF4F2CC6BEC5
:105360003973F0BE3EBD1EBB353FDABE2F19FFBDFF
:105370002A6E01BE91C2B0BDD8F1A2BE218FDCBDA4
:10538000F997FABEA1DB1EBF62AFE3BD7918A0BEDC
:105390001DD1983DA7A02CBE73B402BED3A190BE70
:1053A000091107BED01AC2BE0A6C13BFFC3DBE3E37
:1053B00020578FBE68FEC9BEAD1946BD771C0ABF17
:1053C000D21F1ABF4051DCBE7AD5B8BE68DBF1BE31
:1053D000E248D1BECC0ECBBE93D40EBF070ED1BED9
:1053E0003E66E1BE6B2FEEBEDE37E4BEBAA693BECC
:1053F000A59C8EBE348332BEAEE7E4BE840887BE71
:1054000086E9FDBE3ABC40BEF67F52BE3D1C8B3ED7
:1054100046BE343F00D5ADBE8CF335BF8BBF7CBEDE
:1054200015C3B6BE4C7578BE7774CBBE61DE92BD37
:105430003A2F83BE231359BE922D83BE9C3504BFE1
:1054400056B605BFC4A4AEBE95A387BE6283E8BEB0
:105450001A11A2BD27190BBF798BC4BEB5FF51BE6F
:105460003E7782BE0807C3BE9E758ABECD9D23BE11
:105470001931F3BE27FBF3BEC152B6BE3A8826BF30
:105480001F60A2BE94C42D3D80D3F2BEFA5936BF30
:10549000292BDBBE74351ABE530ADEBE4C5143BE07
:1054A0007D188FBE614AF4BEC596E3BDC1B953BE37
:1054B000F0951FBF2614D8BEE35055BECAF78A3EEA
:1054C000ACF7C0BE792EEABE047B05BF69709DBEF5
:1054D0004A21183F0F8C75BEF97E8CBE4C40D7BE5A
:1054E0003925C4BE1C68ECBE79C1D9BEF332C5BE35
:1054F000051EDEBE61DDB7BE9AA3ABBE5B7CBABE45
:10550000338D14BF221704BFBC939D3E5335C8BED4
:1055100027F508BF8DCF58BE22B49DBE135D6DBE6A
:10552000D38680BEEB5D13BED46FA0BD91986ABEDA
:10553000126624BF063522BF923221BF451920BF13
:10554000F8FF1EBFABE61DBFDAD41CBF12B41BBFF1
:10555000C59A1ABFA85D19BF2B6818BFDE4E17BFCA
:10556000913516BFE06515BFAEF413BFD51A13BF52
:105570005ED011BF11B710BF84A10FBFDF0D0EBFEA
:1055800024A40DBFDD510CBF08540BBF441F0ABF3C
:10559000095509BFA81508BF2AD206BF10BA05BF12
:1055A000CAA004BF768703BF277502BF924B01BF15
:1055B000FFADFFBEC798FEBEC00FFCBE5E74F9BE55
:1055C000882FF7BE3FC1F4BEB73DF3BE4D22F0BEFB
:1055D000A21FEEBEC254ECBEE806EBBE982BE8BE9E
:1055E0006D29E6BEFEA2E3BE1AA4E1BE7E3CDFBE8C
:1055F0004EF7DCBED1EADABE269CD8BE6DE6D6BE3A
:10560000856DD4BE7844D2BEBEFCCFBEDC49CDBED3
:10561000C694CBBE7D04CABEE16FC7BE8E05C5BEB3
:105620003A8FC2BE5D24C0BE1360BEBEC08BBCBE7E
:10563000052CBABE5FA2B7BE46DFB5BE9DF4B3BEB1
:105640001D53B1BECB39AFBE2DCBACBE8711AABEA8
:1056500053F7A7BEB71FA6BEE433A4BE13E6A1BE90
:10566000549F9FBE10909DBE19349BBEA3F698BE5A
:10567000650B97BE2CF894BEF89D92BE296190BE32
:1056800015358EBE36B28BBEE66C89BE3B6687BED4
:10569000F87085BE893483BE5DFC80BEE3697DBE43
:1056A0000CA478BE5D3274BE91736FBE9E6A6BBEF1
:1056B000F23367BEBD7562BE95FE5DBEE5B659BEEE
:1056C0001DA155BEB07A51BEEE124DBEB5BE48BE4C
:1056D000683E44BE58BC3FBE01673BBE630337BE55
:1056E000DBC532BEE95A2EBEE0B529BEF63C25BE6A
:1056F000B10A21BE46C31CBE9F5418BED0F313BED0
:10570000CB7C0FBEFB0F0BBEABDA06BEB36302BE93
:1057100058E6FBBD7EE6F2BDAAF1E9BD573BE1BD0F
:10572000D953D8BDA097CFBDFECDC6BD9003BEBD99
:105730007745B5BD7B82ACBD74BEA3BD28EF9ABDD5
:1057400089FA91BD660789BD015680BD062A6FBDE5
:10575000785B5DBDCC344BBDC99038BDDC6B25BDDD
:105760003A3C14BDE7BC03BD137FE7BC196CC6BC53
:10577000B37AA4BCBFAA81BC09833DBC830BEFBB39
:10578000405246BB418CA13A03DAB43B1BEC1F3CB0
:1057900048D7633C9014933CBC88B23C44BECF3C99
:1057A000DA31F33C771D0C3DE6BD1E3DF847323D36
:1057B0001EDE443D1CF8563DBCE6683DAE8A7A3D8F
:1057C0009E45863D4C2E8F3D36B1973DB658A03D47
:1057D000EB2BA93DD9A7B13DF998BA3D779FC33DC1
:1057E00020B0CC3D3866D53D570BDE3DEE03E73D9E
:1057F00025C4EF3D758DF83DA1CE003E9548053E90
:105800005C9B093E38F10D3E3932123E0067163E70
:1058100064B11A3E3F0E1F3E448A233E5DF4273E8C
:10582000AF6D2C3E0A16313EA56E353E1EFA393E4E
:10583000D2323E3E0AAD423ED301473E2B614B3E43
:10584000BAA94F3EB209543EB9B1583E91215D3ECE
:105850002FA2613E51D4653EAE576A3E80A96E3E8E
:10586000B6FE723EFAF6763E91267B3E73EA7F3EA6
:10587000F82D823E5403843E992C863E75D6883E90
:10588000264F8B3E6E4F8D3E98788F3ED3B4913E1F
:10589000AFE6933E9C31963EE330983EA4649A3E38
:1058A000B0C99C3ECE779F3EF63BA13E2E56A33E0E
:1058B00033AEA53E8C39A83E15F0A93E566DAC3EE0
:1058C0004CC6AD3E072CB03E165AB23E11EBB43E6C
:1058D00014BFB63E92A5B93EAC71BC3EAD67BE3EAC
:1058E000F4F6BF3E6990C23ED5D5C43E5B6CC63E61
:1058F000DBDFC73E17A8CA3EB87CCC3E9A3DCF3E00
:105900003CB9D03E43C4D23E28E3D53E0108D83E40
:1059100018C7DA3E356DDC3ECE9FDE3E68D2E03EF3
:105920000205E33E6C07E63E356AE73ECF9CE93E62
:1059300069CFEB3E9A8E9498998C98958B8B8E8D2F
:105940008E939494958D8C97909A98958B8E8C9538
:105950008F9098958D9A998D9794998F8C938D8D22
:105960008D8F8E8F989894919996908B9499999504
:1059700096949A8B91929991968E96998F939895E9
:105980008E93988D8E9793928E95979692968F8BF5
:105990008D8C938F909696948F8D9A8D938C9597EE
:1059A00092948F958E9895988C8F979A8E908B99CC
:1059B000968F8E988F8B9999968D9A8E96959990B1
:1059C000919A948B8C929798998B8B9495949999A2
:1059D00090949299948E97929A8E929A9A95909A80
:1059E00094959894988B918B9591939799969A9476
:1059F000919C99999692928F8F989A8E97958C9266
:105A00009895988E8D8C8D9998949693949595945D
:105A10009491939199918F959790998F948F8E9758
:105A20008F989594979091988B948D8F8E8C919858
:105A30008E9892919C99959B9395938D91948C8C33
:105A40009A938D9191998D9995928E988C8C8F8B3C
:105A500096928C8E9891939B9A948C9698918D9C0B
:105A6000968E999698999C9196948B92918C8E8E05
:105A70008E8F8D97909B9D8C8F94939093979592FA
:105A80009490908F918C939295949797928E939CEB
:105A9000948E938D94919692978B9992908C908FEF
:105AA00090918F938E968B979996929091998B91D6
:105AB000989691919899949596919691908F8F93AD
:105AC00096949099958F918D8F959296908C9596AE
:105AD0008C939696948E8B8D92929193999A9390A3
